{
  "_format": "hh-sol-artifact-1",
  "contractName": "RandomIpfsNft",
  "sourceName": "contracts/RandomIpfsNft.sol",
  "abi": [
    {
      "inputs": [
        {
          "internalType": "address",
          "name": "vrfCoordinatorV2",
          "type": "address"
        },
        {
          "internalType": "uint64",
          "name": "subscriptionId",
          "type": "uint64"
        },
        {
          "internalType": "bytes32",
          "name": "gasLane",
          "type": "bytes32"
        },
        {
          "internalType": "uint256",
          "name": "mintFee",
          "type": "uint256"
        },
        {
          "internalType": "uint32",
          "name": "callbackGasLimit",
          "type": "uint32"
        },
        {
          "internalType": "string[3]",
          "name": "dogTokenUris",
          "type": "string[3]"
        }
      ],
      "stateMutability": "nonpayable",
      "type": "constructor"
    },
    {
      "inputs": [
        {
          "internalType": "address",
          "name": "have",
          "type": "address"
        },
        {
          "internalType": "address",
          "name": "want",
          "type": "address"
        }
      ],
      "name": "OnlyCoordinatorCanFulfill",
      "type": "error"
    },
    {
      "inputs": [],
      "name": "RandomIpfsNft__AlreadyInitialized",
      "type": "error"
    },
    {
      "inputs": [],
      "name": "RandomIpfsNft__NeedMoreETHSent",
      "type": "error"
    },
    {
      "inputs": [],
      "name": "RandomIpfsNft__RangeOutOfBounds",
      "type": "error"
    },
    {
      "inputs": [],
      "name": "RandomIpfsNft__TransferFailed",
      "type": "error"
    },
    {
      "anonymous": false,
      "inputs": [
        {
          "indexed": true,
          "internalType": "address",
          "name": "owner",
          "type": "address"
        },
        {
          "indexed": true,
          "internalType": "address",
          "name": "approved",
          "type": "address"
        },
        {
          "indexed": true,
          "internalType": "uint256",
          "name": "tokenId",
          "type": "uint256"
        }
      ],
      "name": "Approval",
      "type": "event"
    },
    {
      "anonymous": false,
      "inputs": [
        {
          "indexed": true,
          "internalType": "address",
          "name": "owner",
          "type": "address"
        },
        {
          "indexed": true,
          "internalType": "address",
          "name": "operator",
          "type": "address"
        },
        {
          "indexed": false,
          "internalType": "bool",
          "name": "approved",
          "type": "bool"
        }
      ],
      "name": "ApprovalForAll",
      "type": "event"
    },
    {
      "anonymous": false,
      "inputs": [
        {
          "indexed": false,
          "internalType": "uint256",
          "name": "_fromTokenId",
          "type": "uint256"
        },
        {
          "indexed": false,
          "internalType": "uint256",
          "name": "_toTokenId",
          "type": "uint256"
        }
      ],
      "name": "BatchMetadataUpdate",
      "type": "event"
    },
    {
      "anonymous": false,
      "inputs": [
        {
          "indexed": false,
          "internalType": "uint256",
          "name": "_tokenId",
          "type": "uint256"
        }
      ],
      "name": "MetadataUpdate",
      "type": "event"
    },
    {
      "anonymous": false,
      "inputs": [
        {
          "indexed": false,
          "internalType": "enum RandomIpfsNft.Breed",
          "name": "breed",
          "type": "uint8"
        },
        {
          "indexed": false,
          "internalType": "address",
          "name": "minter",
          "type": "address"
        }
      ],
      "name": "NftMinted",
      "type": "event"
    },
    {
      "anonymous": false,
      "inputs": [
        {
          "indexed": true,
          "internalType": "uint256",
          "name": "requestId",
          "type": "uint256"
        },
        {
          "indexed": false,
          "internalType": "address",
          "name": "requester",
          "type": "address"
        }
      ],
      "name": "NftRequested",
      "type": "event"
    },
    {
      "anonymous": false,
      "inputs": [
        {
          "indexed": true,
          "internalType": "address",
          "name": "previousOwner",
          "type": "address"
        },
        {
          "indexed": true,
          "internalType": "address",
          "name": "newOwner",
          "type": "address"
        }
      ],
      "name": "OwnershipTransferred",
      "type": "event"
    },
    {
      "anonymous": false,
      "inputs": [
        {
          "indexed": true,
          "internalType": "address",
          "name": "from",
          "type": "address"
        },
        {
          "indexed": true,
          "internalType": "address",
          "name": "to",
          "type": "address"
        },
        {
          "indexed": true,
          "internalType": "uint256",
          "name": "tokenId",
          "type": "uint256"
        }
      ],
      "name": "Transfer",
      "type": "event"
    },
    {
      "inputs": [
        {
          "internalType": "address",
          "name": "to",
          "type": "address"
        },
        {
          "internalType": "uint256",
          "name": "tokenId",
          "type": "uint256"
        }
      ],
      "name": "approve",
      "outputs": [],
      "stateMutability": "nonpayable",
      "type": "function"
    },
    {
      "inputs": [
        {
          "internalType": "address",
          "name": "owner",
          "type": "address"
        }
      ],
      "name": "balanceOf",
      "outputs": [
        {
          "internalType": "uint256",
          "name": "",
          "type": "uint256"
        }
      ],
      "stateMutability": "view",
      "type": "function"
    },
    {
      "inputs": [
        {
          "internalType": "uint256",
          "name": "tokenId",
          "type": "uint256"
        }
      ],
      "name": "getApproved",
      "outputs": [
        {
          "internalType": "address",
          "name": "",
          "type": "address"
        }
      ],
      "stateMutability": "view",
      "type": "function"
    },
    {
      "inputs": [
        {
          "internalType": "uint256",
          "name": "moddedRng",
          "type": "uint256"
        }
      ],
      "name": "getBreedFromModdedRng",
      "outputs": [
        {
          "internalType": "enum RandomIpfsNft.Breed",
          "name": "",
          "type": "uint8"
        }
      ],
      "stateMutability": "pure",
      "type": "function"
    },
    {
      "inputs": [],
      "name": "getChanceArray",
      "outputs": [
        {
          "internalType": "uint256[3]",
          "name": "",
          "type": "uint256[3]"
        }
      ],
      "stateMutability": "pure",
      "type": "function"
    },
    {
      "inputs": [
        {
          "internalType": "uint256",
          "name": "index",
          "type": "uint256"
        }
      ],
      "name": "getDogTokenUris",
      "outputs": [
        {
          "internalType": "string",
          "name": "",
          "type": "string"
        }
      ],
      "stateMutability": "view",
      "type": "function"
    },
    {
      "inputs": [],
      "name": "getInitialized",
      "outputs": [
        {
          "internalType": "bool",
          "name": "",
          "type": "bool"
        }
      ],
      "stateMutability": "view",
      "type": "function"
    },
    {
      "inputs": [],
      "name": "getMintFee",
      "outputs": [
        {
          "internalType": "uint256",
          "name": "",
          "type": "uint256"
        }
      ],
      "stateMutability": "view",
      "type": "function"
    },
    {
      "inputs": [],
      "name": "getTokenCounter",
      "outputs": [
        {
          "internalType": "uint256",
          "name": "",
          "type": "uint256"
        }
      ],
      "stateMutability": "view",
      "type": "function"
    },
    {
      "inputs": [
        {
          "internalType": "address",
          "name": "owner",
          "type": "address"
        },
        {
          "internalType": "address",
          "name": "operator",
          "type": "address"
        }
      ],
      "name": "isApprovedForAll",
      "outputs": [
        {
          "internalType": "bool",
          "name": "",
          "type": "bool"
        }
      ],
      "stateMutability": "view",
      "type": "function"
    },
    {
      "inputs": [],
      "name": "name",
      "outputs": [
        {
          "internalType": "string",
          "name": "",
          "type": "string"
        }
      ],
      "stateMutability": "view",
      "type": "function"
    },
    {
      "inputs": [],
      "name": "owner",
      "outputs": [
        {
          "internalType": "address",
          "name": "",
          "type": "address"
        }
      ],
      "stateMutability": "view",
      "type": "function"
    },
    {
      "inputs": [
        {
          "internalType": "uint256",
          "name": "tokenId",
          "type": "uint256"
        }
      ],
      "name": "ownerOf",
      "outputs": [
        {
          "internalType": "address",
          "name": "",
          "type": "address"
        }
      ],
      "stateMutability": "view",
      "type": "function"
    },
    {
      "inputs": [
        {
          "internalType": "uint256",
          "name": "requestId",
          "type": "uint256"
        },
        {
          "internalType": "uint256[]",
          "name": "randomWords",
          "type": "uint256[]"
        }
      ],
      "name": "rawFulfillRandomWords",
      "outputs": [],
      "stateMutability": "nonpayable",
      "type": "function"
    },
    {
      "inputs": [],
      "name": "renounceOwnership",
      "outputs": [],
      "stateMutability": "nonpayable",
      "type": "function"
    },
    {
      "inputs": [],
      "name": "requestNft",
      "outputs": [
        {
          "internalType": "uint256",
          "name": "requestId",
          "type": "uint256"
        }
      ],
      "stateMutability": "payable",
      "type": "function"
    },
    {
      "inputs": [
        {
          "internalType": "uint256",
          "name": "",
          "type": "uint256"
        }
      ],
      "name": "s_requestIdToSender",
      "outputs": [
        {
          "internalType": "address",
          "name": "",
          "type": "address"
        }
      ],
      "stateMutability": "view",
      "type": "function"
    },
    {
      "inputs": [
        {
          "internalType": "address",
          "name": "from",
          "type": "address"
        },
        {
          "internalType": "address",
          "name": "to",
          "type": "address"
        },
        {
          "internalType": "uint256",
          "name": "tokenId",
          "type": "uint256"
        }
      ],
      "name": "safeTransferFrom",
      "outputs": [],
      "stateMutability": "nonpayable",
      "type": "function"
    },
    {
      "inputs": [
        {
          "internalType": "address",
          "name": "from",
          "type": "address"
        },
        {
          "internalType": "address",
          "name": "to",
          "type": "address"
        },
        {
          "internalType": "uint256",
          "name": "tokenId",
          "type": "uint256"
        },
        {
          "internalType": "bytes",
          "name": "data",
          "type": "bytes"
        }
      ],
      "name": "safeTransferFrom",
      "outputs": [],
      "stateMutability": "nonpayable",
      "type": "function"
    },
    {
      "inputs": [
        {
          "internalType": "address",
          "name": "operator",
          "type": "address"
        },
        {
          "internalType": "bool",
          "name": "approved",
          "type": "bool"
        }
      ],
      "name": "setApprovalForAll",
      "outputs": [],
      "stateMutability": "nonpayable",
      "type": "function"
    },
    {
      "inputs": [
        {
          "internalType": "bytes4",
          "name": "interfaceId",
          "type": "bytes4"
        }
      ],
      "name": "supportsInterface",
      "outputs": [
        {
          "internalType": "bool",
          "name": "",
          "type": "bool"
        }
      ],
      "stateMutability": "view",
      "type": "function"
    },
    {
      "inputs": [],
      "name": "symbol",
      "outputs": [
        {
          "internalType": "string",
          "name": "",
          "type": "string"
        }
      ],
      "stateMutability": "view",
      "type": "function"
    },
    {
      "inputs": [
        {
          "internalType": "uint256",
          "name": "tokenId",
          "type": "uint256"
        }
      ],
      "name": "tokenURI",
      "outputs": [
        {
          "internalType": "string",
          "name": "",
          "type": "string"
        }
      ],
      "stateMutability": "view",
      "type": "function"
    },
    {
      "inputs": [
        {
          "internalType": "address",
          "name": "from",
          "type": "address"
        },
        {
          "internalType": "address",
          "name": "to",
          "type": "address"
        },
        {
          "internalType": "uint256",
          "name": "tokenId",
          "type": "uint256"
        }
      ],
      "name": "transferFrom",
      "outputs": [],
      "stateMutability": "nonpayable",
      "type": "function"
    },
    {
      "inputs": [
        {
          "internalType": "address",
          "name": "newOwner",
          "type": "address"
        }
      ],
      "name": "transferOwnership",
      "outputs": [],
      "stateMutability": "nonpayable",
      "type": "function"
    },
    {
      "inputs": [],
      "name": "withdraw",
      "outputs": [],
      "stateMutability": "nonpayable",
      "type": "function"
    }
  ],
  "bytecode": "0x6101406040523480156200001257600080fd5b50604051620048be380380620048be8339818101604052810190620000389190620007ce565b856040518060400160405280600f81526020017f52616e646f6d2049504653204e465400000000000000000000000000000000008152506040518060400160405280600381526020017f52494e00000000000000000000000000000000000000000000000000000000008152508160009081620000b6919062000aca565b508060019081620000c8919062000aca565b5050508073ffffffffffffffffffffffffffffffffffffffff1660808173ffffffffffffffffffffffffffffffffffffffff1681525050506200012062000114620001bb60201b60201c565b620001c360201b60201c565b8573ffffffffffffffffffffffffffffffffffffffff1660a08173ffffffffffffffffffffffffffffffffffffffff16815250508360e081815250508467ffffffffffffffff1660c08167ffffffffffffffff16815250508261012081815250508163ffffffff166101008163ffffffff1681525050620001a7816200028960201b60201c565b600060088190555050505050505062000bb1565b600033905090565b6000600760009054906101000a900473ffffffffffffffffffffffffffffffffffffffff16905081600760006101000a81548173ffffffffffffffffffffffffffffffffffffffff021916908373ffffffffffffffffffffffffffffffffffffffff1602179055508173ffffffffffffffffffffffffffffffffffffffff168173ffffffffffffffffffffffffffffffffffffffff167f8be0079c531659141344cd1fd0a4f28419497f9722a3daafe3b4186f6b6457e060405160405180910390a35050565b600a60009054906101000a900460ff1615620002d1576040517fddf8bf7000000000000000000000000000000000000000000000000000000000815260040160405180910390fd5b806009906003620002e492919062000303565b506001600a60006101000a81548160ff02191690831515021790555050565b82805482825590600052602060002090810192821562000350579160200282015b828111156200034f5782518290816200033e919062000aca565b509160200191906001019062000324565b5b5090506200035f919062000363565b5090565b5b808211156200038757600081816200037d91906200038b565b5060010162000364565b5090565b5080546200039990620008c3565b6000825580601f10620003ad5750620003ce565b601f016020900490600052602060002090810190620003cd9190620003d1565b5b50565b5b80821115620003ec576000816000905550600101620003d2565b5090565b6000604051905090565b600080fd5b600080fd5b600073ffffffffffffffffffffffffffffffffffffffff82169050919050565b6000620004318262000404565b9050919050565b620004438162000424565b81146200044f57600080fd5b50565b600081519050620004638162000438565b92915050565b600067ffffffffffffffff82169050919050565b620004888162000469565b81146200049457600080fd5b50565b600081519050620004a8816200047d565b92915050565b6000819050919050565b620004c381620004ae565b8114620004cf57600080fd5b50565b600081519050620004e381620004b8565b92915050565b6000819050919050565b620004fe81620004e9565b81146200050a57600080fd5b50565b6000815190506200051e81620004f3565b92915050565b600063ffffffff82169050919050565b6200053f8162000524565b81146200054b57600080fd5b50565b6000815190506200055f8162000534565b92915050565b600080fd5b6000601f19601f8301169050919050565b7f4e487b7100000000000000000000000000000000000000000000000000000000600052604160045260246000fd5b620005b5826200056a565b810181811067ffffffffffffffff82111715620005d757620005d66200057b565b5b80604052505050565b6000620005ec620003f0565b9050620005fa8282620005aa565b919050565b600067ffffffffffffffff8211156200061d576200061c6200057b565b5b602082029050919050565b600080fd5b600080fd5b600067ffffffffffffffff82111562000650576200064f6200057b565b5b6200065b826200056a565b9050602081019050919050565b60005b83811015620006885780820151818401526020810190506200066b565b60008484015250505050565b6000620006ab620006a58462000632565b620005e0565b905082815260208101848484011115620006ca57620006c96200062d565b5b620006d784828562000668565b509392505050565b600082601f830112620006f757620006f662000565565b5b81516200070984826020860162000694565b91505092915050565b6000620007296200072384620005ff565b620005e0565b9050806020840283018581111562000746576200074562000628565b5b835b818110156200079457805167ffffffffffffffff8111156200076f576200076e62000565565b5b8086016200077e8982620006df565b8552602085019450505060208101905062000748565b5050509392505050565b600082601f830112620007b657620007b562000565565b5b6003620007c584828562000712565b91505092915050565b60008060008060008060c08789031215620007ee57620007ed620003fa565b5b6000620007fe89828a0162000452565b96505060206200081189828a0162000497565b95505060406200082489828a01620004d2565b94505060606200083789828a016200050d565b93505060806200084a89828a016200054e565b92505060a087015167ffffffffffffffff8111156200086e576200086d620003ff565b5b6200087c89828a016200079e565b9150509295509295509295565b600081519050919050565b7f4e487b7100000000000000000000000000000000000000000000000000000000600052602260045260246000fd5b60006002820490506001821680620008dc57607f821691505b602082108103620008f257620008f162000894565b5b50919050565b60008190508160005260206000209050919050565b60006020601f8301049050919050565b600082821b905092915050565b6000600883026200095c7fffffffffffffffffffffffffffffffffffffffffffffffffffffffffffffffff826200091d565b6200096886836200091d565b95508019841693508086168417925050509392505050565b6000819050919050565b6000620009ab620009a56200099f84620004e9565b62000980565b620004e9565b9050919050565b6000819050919050565b620009c7836200098a565b620009df620009d682620009b2565b8484546200092a565b825550505050565b600090565b620009f6620009e7565b62000a03818484620009bc565b505050565b5b8181101562000a2b5762000a1f600082620009ec565b60018101905062000a09565b5050565b601f82111562000a7a5762000a4481620008f8565b62000a4f846200090d565b8101602085101562000a5f578190505b62000a7762000a6e856200090d565b83018262000a08565b50505b505050565b600082821c905092915050565b600062000a9f6000198460080262000a7f565b1980831691505092915050565b600062000aba838362000a8c565b9150826002028217905092915050565b62000ad58262000889565b67ffffffffffffffff81111562000af15762000af06200057b565b5b62000afd8254620008c3565b62000b0a82828562000a2f565b600060209050601f83116001811462000b42576000841562000b2d578287015190505b62000b39858262000aac565b86555062000ba9565b601f19841662000b5286620008f8565b60005b8281101562000b7c5784890151825560018201915060208501945060208101905062000b55565b8683101562000b9c578489015162000b98601f89168262000a8c565b8355505b6001600288020188555050505b505050505050565b60805160a05160c05160e0516101005161012051613caf62000c0f60003960008181610cc10152610eba01526000610f9401526000610f5001526000610f7101526000610f1401526000818161089501526108e90152613caf6000f3fe6080604052600436106101815760003560e01c8063715018a6116100d1578063a51cccf31161008a578063c87b56dd11610064578063c87b56dd14610575578063e985e9c5146105b2578063ee89dab4146105ef578063f2fde38b1461061a57610181565b8063a51cccf3146104f1578063aa1524911461052e578063b88d4fde1461054c57610181565b8063715018a6146103f35780637a5caab31461040a5780638da5cb5b1461043557806395d89b4114610460578063a22cb4651461048b578063a36f573b146104b457610181565b80633af259751161013e5780635dacf5f4116101185780635dacf5f4146103235780636352211e1461034e5780636e02007d1461038b57806370a08231146103b657610181565b80633af25975146102a65780633ccfd60b146102e357806342842e0e146102fa57610181565b806301ffc9a71461018657806306fdde03146101c3578063081812fc146101ee578063095ea7b31461022b5780631fe543e31461025457806323b872dd1461027d575b600080fd5b34801561019257600080fd5b506101ad60048036038101906101a89190612671565b610643565b6040516101ba91906126b9565b60405180910390f35b3480156101cf57600080fd5b506101d86106a4565b6040516101e59190612764565b60405180910390f35b3480156101fa57600080fd5b50610215600480360381019061021091906127bc565b610736565b604051610222919061282a565b60405180910390f35b34801561023757600080fd5b50610252600480360381019061024d9190612871565b61077c565b005b34801561026057600080fd5b5061027b600480360381019061027691906129f9565b610893565b005b34801561028957600080fd5b506102a4600480360381019061029f9190612a55565b610953565b005b3480156102b257600080fd5b506102cd60048036038101906102c891906127bc565b6109b3565b6040516102da9190612764565b60405180910390f35b3480156102ef57600080fd5b506102f8610a63565b005b34801561030657600080fd5b50610321600480360381019061031c9190612a55565b610b17565b005b34801561032f57600080fd5b50610338610b37565b6040516103459190612b53565b60405180910390f35b34801561035a57600080fd5b50610375600480360381019061037091906127bc565b610b62565b604051610382919061282a565b60405180910390f35b34801561039757600080fd5b506103a0610be8565b6040516103ad9190612b7d565b60405180910390f35b3480156103c257600080fd5b506103dd60048036038101906103d89190612b98565b610bf2565b6040516103ea9190612b7d565b60405180910390f35b3480156103ff57600080fd5b50610408610ca9565b005b34801561041657600080fd5b5061041f610cbd565b60405161042c9190612b7d565b60405180910390f35b34801561044157600080fd5b5061044a610ce5565b604051610457919061282a565b60405180910390f35b34801561046c57600080fd5b50610475610d0f565b6040516104829190612764565b60405180910390f35b34801561049757600080fd5b506104b260048036038101906104ad9190612bf1565b610da1565b005b3480156104c057600080fd5b506104db60048036038101906104d691906127bc565b610db7565b6040516104e8919061282a565b60405180910390f35b3480156104fd57600080fd5b50610518600480360381019061051391906127bc565b610dea565b6040516105259190612ca8565b60405180910390f35b610536610eb6565b6040516105439190612b7d565b60405180910390f35b34801561055857600080fd5b50610573600480360381019061056e9190612d78565b6110a7565b005b34801561058157600080fd5b5061059c600480360381019061059791906127bc565b611109565b6040516105a99190612764565b60405180910390f35b3480156105be57600080fd5b506105d960048036038101906105d49190612dfb565b61121b565b6040516105e691906126b9565b60405180910390f35b3480156105fb57600080fd5b506106046112af565b60405161061191906126b9565b60405180910390f35b34801561062657600080fd5b50610641600480360381019061063c9190612b98565b6112c6565b005b6000634906490660e01b7bffffffffffffffffffffffffffffffffffffffffffffffffffffffff1916827bffffffffffffffffffffffffffffffffffffffffffffffffffffffff1916148061069d575061069c82611349565b5b9050919050565b6060600080546106b390612e6a565b80601f01602080910402602001604051908101604052809291908181526020018280546106df90612e6a565b801561072c5780601f106107015761010080835404028352916020019161072c565b820191906000526020600020905b81548152906001019060200180831161070f57829003601f168201915b5050505050905090565b60006107418261142b565b6004600083815260200190815260200160002060009054906101000a900473ffffffffffffffffffffffffffffffffffffffff169050919050565b600061078782610b62565b90508073ffffffffffffffffffffffffffffffffffffffff168373ffffffffffffffffffffffffffffffffffffffff16036107f7576040517f08c379a00000000000000000000000000000000000000000000000000000000081526004016107ee90612f0d565b60405180910390fd5b8073ffffffffffffffffffffffffffffffffffffffff16610816611476565b73ffffffffffffffffffffffffffffffffffffffff16148061084557506108448161083f611476565b61121b565b5b610884576040517f08c379a000000000000000000000000000000000000000000000000000000000815260040161087b90612f9f565b60405180910390fd5b61088e838361147e565b505050565b7f000000000000000000000000000000000000000000000000000000000000000073ffffffffffffffffffffffffffffffffffffffff163373ffffffffffffffffffffffffffffffffffffffff161461094557337f00000000000000000000000000000000000000000000000000000000000000006040517f1cf993f400000000000000000000000000000000000000000000000000000000815260040161093c929190612fbf565b60405180910390fd5b61094f8282611537565b5050565b61096461095e611476565b826116d1565b6109a3576040517f08c379a000000000000000000000000000000000000000000000000000000000815260040161099a9061305a565b60405180910390fd5b6109ae838383611766565b505050565b6060600982815481106109c9576109c861307a565b5b9060005260206000200180546109de90612e6a565b80601f0160208091040260200160405190810160405280929190818152602001828054610a0a90612e6a565b8015610a575780601f10610a2c57610100808354040283529160200191610a57565b820191906000526020600020905b815481529060010190602001808311610a3a57829003601f168201915b50505050509050919050565b610a6b611a5f565b600047905060003373ffffffffffffffffffffffffffffffffffffffff1682604051610a96906130da565b60006040518083038185875af1925050503d8060008114610ad3576040519150601f19603f3d011682016040523d82523d6000602084013e610ad8565b606091505b5050905080610b13576040517fca7e25b700000000000000000000000000000000000000000000000000000000815260040160405180910390fd5b5050565b610b32838383604051806020016040528060008152506110a7565b505050565b610b3f6125e3565b6040518060600160405280600a8152602001602881526020016064815250905090565b600080610b6e83611add565b9050600073ffffffffffffffffffffffffffffffffffffffff168173ffffffffffffffffffffffffffffffffffffffff1603610bdf576040517f08c379a0000000000000000000000000000000000000000000000000000000008152600401610bd69061313b565b60405180910390fd5b80915050919050565b6000600854905090565b60008073ffffffffffffffffffffffffffffffffffffffff168273ffffffffffffffffffffffffffffffffffffffff1603610c62576040517f08c379a0000000000000000000000000000000000000000000000000000000008152600401610c59906131cd565b60405180910390fd5b600360008373ffffffffffffffffffffffffffffffffffffffff1673ffffffffffffffffffffffffffffffffffffffff168152602001908152602001600020549050919050565b610cb1611a5f565b610cbb6000611b1a565b565b60007f0000000000000000000000000000000000000000000000000000000000000000905090565b6000600760009054906101000a900473ffffffffffffffffffffffffffffffffffffffff16905090565b606060018054610d1e90612e6a565b80601f0160208091040260200160405190810160405280929190818152602001828054610d4a90612e6a565b8015610d975780601f10610d6c57610100808354040283529160200191610d97565b820191906000526020600020905b815481529060010190602001808311610d7a57829003601f168201915b5050505050905090565b610db3610dac611476565b8383611be0565b5050565b600b6020528060005260406000206000915054906101000a900473ffffffffffffffffffffffffffffffffffffffff1681565b600080600090506000610dfb610b37565b905060005b6003811015610e7e57828510158015610e2f5750818160038110610e2757610e2661307a565b5b602002015185105b15610e5157806002811115610e4757610e46612c31565b5b9350505050610eb1565b818160038110610e6457610e6361307a565b5b602002015192508080610e769061321c565b915050610e00565b506040517f12806c9d00000000000000000000000000000000000000000000000000000000815260040160405180910390fd5b919050565b60007f0000000000000000000000000000000000000000000000000000000000000000341015610f12576040517fb90f491000000000000000000000000000000000000000000000000000000000815260040160405180910390fd5b7f000000000000000000000000000000000000000000000000000000000000000073ffffffffffffffffffffffffffffffffffffffff16635d3b1d307f00000000000000000000000000000000000000000000000000000000000000007f000000000000000000000000000000000000000000000000000000000000000060037f000000000000000000000000000000000000000000000000000000000000000060016040518663ffffffff1660e01b8152600401610fd59594939291906132dc565b6020604051808303816000875af1158015610ff4573d6000803e3d6000fd5b505050506040513d601f19601f820116820180604052508101906110189190613344565b905033600b600083815260200190815260200160002060006101000a81548173ffffffffffffffffffffffffffffffffffffffff021916908373ffffffffffffffffffffffffffffffffffffffff160217905550807ff873236e6cc0ecc5be1a9a35c95ee5b8d1ac4cc7bfef0cc5060391d6cc98e26b3360405161109c919061282a565b60405180910390a290565b6110b86110b2611476565b836116d1565b6110f7576040517f08c379a00000000000000000000000000000000000000000000000000000000081526004016110ee9061305a565b60405180910390fd5b61110384848484611d4c565b50505050565b60606111148261142b565b600060066000848152602001908152602001600020805461113490612e6a565b80601f016020809104026020016040519081016040528092919081815260200182805461116090612e6a565b80156111ad5780601f10611182576101008083540402835291602001916111ad565b820191906000526020600020905b81548152906001019060200180831161119057829003601f168201915b5050505050905060006111be611da8565b905060008151036111d3578192505050611216565b6000825111156112085780826040516020016111f09291906133ad565b60405160208183030381529060405292505050611216565b61121184611dbf565b925050505b919050565b6000600560008473ffffffffffffffffffffffffffffffffffffffff1673ffffffffffffffffffffffffffffffffffffffff16815260200190815260200160002060008373ffffffffffffffffffffffffffffffffffffffff1673ffffffffffffffffffffffffffffffffffffffff16815260200190815260200160002060009054906101000a900460ff16905092915050565b6000600a60009054906101000a900460ff16905090565b6112ce611a5f565b600073ffffffffffffffffffffffffffffffffffffffff168173ffffffffffffffffffffffffffffffffffffffff160361133d576040517f08c379a000000000000000000000000000000000000000000000000000000000815260040161133490613443565b60405180910390fd5b61134681611b1a565b50565b60007f80ac58cd000000000000000000000000000000000000000000000000000000007bffffffffffffffffffffffffffffffffffffffffffffffffffffffff1916827bffffffffffffffffffffffffffffffffffffffffffffffffffffffff1916148061141457507f5b5e139f000000000000000000000000000000000000000000000000000000007bffffffffffffffffffffffffffffffffffffffffffffffffffffffff1916827bffffffffffffffffffffffffffffffffffffffffffffffffffffffff1916145b80611424575061142382611e27565b5b9050919050565b61143481611e91565b611473576040517f08c379a000000000000000000000000000000000000000000000000000000000815260040161146a9061313b565b60405180910390fd5b50565b600033905090565b816004600083815260200190815260200160002060006101000a81548173ffffffffffffffffffffffffffffffffffffffff021916908373ffffffffffffffffffffffffffffffffffffffff160217905550808273ffffffffffffffffffffffffffffffffffffffff166114f183610b62565b73ffffffffffffffffffffffffffffffffffffffff167f8c5be1e5ebec7d5bd14f71427d1e84f3dd0314c0f7b2291e5b200ac8c7c3b92560405160405180910390a45050565b6000600b600084815260200190815260200160002060009054906101000a900473ffffffffffffffffffffffffffffffffffffffff1690506000600854905060016008546115859190613463565b60088190555060006064846000815181106115a3576115a261307a565b5b60200260200101516115b591906134c6565b905060006115c282610dea565b90506115ce8484611ed2565b6116908360098360028111156115e7576115e6612c31565b5b815481106115f8576115f761307a565b5b90600052602060002001805461160d90612e6a565b80601f016020809104026020016040519081016040528092919081815260200182805461163990612e6a565b80156116865780601f1061165b57610100808354040283529160200191611686565b820191906000526020600020905b81548152906001019060200180831161166957829003601f168201915b5050505050611ef0565b7f8a269f26b688e110e9cbd887d163dab35cae678fa353a0292de532c0cac1ecdc81856040516116c19291906134f7565b60405180910390a1505050505050565b6000806116dd83610b62565b90508073ffffffffffffffffffffffffffffffffffffffff168473ffffffffffffffffffffffffffffffffffffffff16148061171f575061171e818561121b565b5b8061175d57508373ffffffffffffffffffffffffffffffffffffffff1661174584610736565b73ffffffffffffffffffffffffffffffffffffffff16145b91505092915050565b8273ffffffffffffffffffffffffffffffffffffffff1661178682610b62565b73ffffffffffffffffffffffffffffffffffffffff16146117dc576040517f08c379a00000000000000000000000000000000000000000000000000000000081526004016117d390613592565b60405180910390fd5b600073ffffffffffffffffffffffffffffffffffffffff168273ffffffffffffffffffffffffffffffffffffffff160361184b576040517f08c379a000000000000000000000000000000000000000000000000000000000815260040161184290613624565b60405180910390fd5b6118588383836001611f94565b8273ffffffffffffffffffffffffffffffffffffffff1661187882610b62565b73ffffffffffffffffffffffffffffffffffffffff16146118ce576040517f08c379a00000000000000000000000000000000000000000000000000000000081526004016118c590613592565b60405180910390fd5b6004600082815260200190815260200160002060006101000a81549073ffffffffffffffffffffffffffffffffffffffff02191690556001600360008573ffffffffffffffffffffffffffffffffffffffff1673ffffffffffffffffffffffffffffffffffffffff168152602001908152602001600020600082825403925050819055506001600360008473ffffffffffffffffffffffffffffffffffffffff1673ffffffffffffffffffffffffffffffffffffffff16815260200190815260200160002060008282540192505081905550816002600083815260200190815260200160002060006101000a81548173ffffffffffffffffffffffffffffffffffffffff021916908373ffffffffffffffffffffffffffffffffffffffff160217905550808273ffffffffffffffffffffffffffffffffffffffff168473ffffffffffffffffffffffffffffffffffffffff167fddf252ad1be2c89b69c2b068fc378daa952ba7f163c4a11628f55a4df523b3ef60405160405180910390a4611a5a8383836001611f9a565b505050565b611a67611476565b73ffffffffffffffffffffffffffffffffffffffff16611a85610ce5565b73ffffffffffffffffffffffffffffffffffffffff1614611adb576040517f08c379a0000000000000000000000000000000000000000000000000000000008152600401611ad290613690565b60405180910390fd5b565b60006002600083815260200190815260200160002060009054906101000a900473ffffffffffffffffffffffffffffffffffffffff169050919050565b6000600760009054906101000a900473ffffffffffffffffffffffffffffffffffffffff16905081600760006101000a81548173ffffffffffffffffffffffffffffffffffffffff021916908373ffffffffffffffffffffffffffffffffffffffff1602179055508173ffffffffffffffffffffffffffffffffffffffff168173ffffffffffffffffffffffffffffffffffffffff167f8be0079c531659141344cd1fd0a4f28419497f9722a3daafe3b4186f6b6457e060405160405180910390a35050565b8173ffffffffffffffffffffffffffffffffffffffff168373ffffffffffffffffffffffffffffffffffffffff1603611c4e576040517f08c379a0000000000000000000000000000000000000000000000000000000008152600401611c45906136fc565b60405180910390fd5b80600560008573ffffffffffffffffffffffffffffffffffffffff1673ffffffffffffffffffffffffffffffffffffffff16815260200190815260200160002060008473ffffffffffffffffffffffffffffffffffffffff1673ffffffffffffffffffffffffffffffffffffffff16815260200190815260200160002060006101000a81548160ff0219169083151502179055508173ffffffffffffffffffffffffffffffffffffffff168373ffffffffffffffffffffffffffffffffffffffff167f17307eab39ab6107e8899845ad3d59bd9653f200f220920489ca2b5937696c3183604051611d3f91906126b9565b60405180910390a3505050565b611d57848484611766565b611d6384848484611fa0565b611da2576040517f08c379a0000000000000000000000000000000000000000000000000000000008152600401611d999061378e565b60405180910390fd5b50505050565b606060405180602001604052806000815250905090565b6060611dca8261142b565b6000611dd4611da8565b90506000815111611df45760405180602001604052806000815250611e1f565b80611dfe84612127565b604051602001611e0f9291906133ad565b6040516020818303038152906040525b915050919050565b60007f01ffc9a7000000000000000000000000000000000000000000000000000000007bffffffffffffffffffffffffffffffffffffffffffffffffffffffff1916827bffffffffffffffffffffffffffffffffffffffffffffffffffffffff1916149050919050565b60008073ffffffffffffffffffffffffffffffffffffffff16611eb383611add565b73ffffffffffffffffffffffffffffffffffffffff1614159050919050565b611eec8282604051806020016040528060008152506121f5565b5050565b611ef982611e91565b611f38576040517f08c379a0000000000000000000000000000000000000000000000000000000008152600401611f2f90613820565b60405180910390fd5b80600660008481526020019081526020016000209081611f5891906139ec565b507ff8e1a15aba9398e019f0b49df1a4fde98ee17ae345cb5f6b5e2c27f5033e8ce782604051611f889190612b7d565b60405180910390a15050565b50505050565b50505050565b6000611fc18473ffffffffffffffffffffffffffffffffffffffff16612250565b1561211a578373ffffffffffffffffffffffffffffffffffffffff1663150b7a02611fea611476565b8786866040518563ffffffff1660e01b815260040161200c9493929190613b13565b6020604051808303816000875af192505050801561204857506040513d601f19601f820116820180604052508101906120459190613b74565b60015b6120ca573d8060008114612078576040519150601f19603f3d011682016040523d82523d6000602084013e61207d565b606091505b5060008151036120c2576040517f08c379a00000000000000000000000000000000000000000000000000000000081526004016120b99061378e565b60405180910390fd5b805181602001fd5b63150b7a0260e01b7bffffffffffffffffffffffffffffffffffffffffffffffffffffffff1916817bffffffffffffffffffffffffffffffffffffffffffffffffffffffff19161491505061211f565b600190505b949350505050565b60606000600161213684612273565b01905060008167ffffffffffffffff811115612155576121546128b6565b5b6040519080825280601f01601f1916602001820160405280156121875781602001600182028036833780820191505090505b509050600082602001820190505b6001156121ea578080600190039150507f3031323334353637383961626364656600000000000000000000000000000000600a86061a8153600a85816121de576121dd613497565b5b04945060008503612195575b819350505050919050565b6121ff83836123c6565b61220c6000848484611fa0565b61224b576040517f08c379a00000000000000000000000000000000000000000000000000000000081526004016122429061378e565b60405180910390fd5b505050565b6000808273ffffffffffffffffffffffffffffffffffffffff163b119050919050565b600080600090507a184f03e93ff9f4daa797ed6e38ed64bf6a1f01000000000000000083106122d1577a184f03e93ff9f4daa797ed6e38ed64bf6a1f01000000000000000083816122c7576122c6613497565b5b0492506040810190505b6d04ee2d6d415b85acef8100000000831061230e576d04ee2d6d415b85acef8100000000838161230457612303613497565b5b0492506020810190505b662386f26fc10000831061233d57662386f26fc10000838161233357612332613497565b5b0492506010810190505b6305f5e1008310612366576305f5e100838161235c5761235b613497565b5b0492506008810190505b612710831061238b57612710838161238157612380613497565b5b0492506004810190505b606483106123ae57606483816123a4576123a3613497565b5b0492506002810190505b600a83106123bd576001810190505b80915050919050565b600073ffffffffffffffffffffffffffffffffffffffff168273ffffffffffffffffffffffffffffffffffffffff1603612435576040517f08c379a000000000000000000000000000000000000000000000000000000000815260040161242c90613bed565b60405180910390fd5b61243e81611e91565b1561247e576040517f08c379a000000000000000000000000000000000000000000000000000000000815260040161247590613c59565b60405180910390fd5b61248c600083836001611f94565b61249581611e91565b156124d5576040517f08c379a00000000000000000000000000000000000000000000000000000000081526004016124cc90613c59565b60405180910390fd5b6001600360008473ffffffffffffffffffffffffffffffffffffffff1673ffffffffffffffffffffffffffffffffffffffff16815260200190815260200160002060008282540192505081905550816002600083815260200190815260200160002060006101000a81548173ffffffffffffffffffffffffffffffffffffffff021916908373ffffffffffffffffffffffffffffffffffffffff160217905550808273ffffffffffffffffffffffffffffffffffffffff16600073ffffffffffffffffffffffffffffffffffffffff167fddf252ad1be2c89b69c2b068fc378daa952ba7f163c4a11628f55a4df523b3ef60405160405180910390a46125df600083836001611f9a565b5050565b6040518060600160405280600390602082028036833780820191505090505090565b6000604051905090565b600080fd5b600080fd5b60007fffffffff0000000000000000000000000000000000000000000000000000000082169050919050565b61264e81612619565b811461265957600080fd5b50565b60008135905061266b81612645565b92915050565b6000602082840312156126875761268661260f565b5b60006126958482850161265c565b91505092915050565b60008115159050919050565b6126b38161269e565b82525050565b60006020820190506126ce60008301846126aa565b92915050565b600081519050919050565b600082825260208201905092915050565b60005b8381101561270e5780820151818401526020810190506126f3565b60008484015250505050565b6000601f19601f8301169050919050565b6000612736826126d4565b61274081856126df565b93506127508185602086016126f0565b6127598161271a565b840191505092915050565b6000602082019050818103600083015261277e818461272b565b905092915050565b6000819050919050565b61279981612786565b81146127a457600080fd5b50565b6000813590506127b681612790565b92915050565b6000602082840312156127d2576127d161260f565b5b60006127e0848285016127a7565b91505092915050565b600073ffffffffffffffffffffffffffffffffffffffff82169050919050565b6000612814826127e9565b9050919050565b61282481612809565b82525050565b600060208201905061283f600083018461281b565b92915050565b61284e81612809565b811461285957600080fd5b50565b60008135905061286b81612845565b92915050565b600080604083850312156128885761288761260f565b5b60006128968582860161285c565b92505060206128a7858286016127a7565b9150509250929050565b600080fd5b7f4e487b7100000000000000000000000000000000000000000000000000000000600052604160045260246000fd5b6128ee8261271a565b810181811067ffffffffffffffff8211171561290d5761290c6128b6565b5b80604052505050565b6000612920612605565b905061292c82826128e5565b919050565b600067ffffffffffffffff82111561294c5761294b6128b6565b5b602082029050602081019050919050565b600080fd5b600061297561297084612931565b612916565b905080838252602082019050602084028301858111156129985761299761295d565b5b835b818110156129c157806129ad88826127a7565b84526020840193505060208101905061299a565b5050509392505050565b600082601f8301126129e0576129df6128b1565b5b81356129f0848260208601612962565b91505092915050565b60008060408385031215612a1057612a0f61260f565b5b6000612a1e858286016127a7565b925050602083013567ffffffffffffffff811115612a3f57612a3e612614565b5b612a4b858286016129cb565b9150509250929050565b600080600060608486031215612a6e57612a6d61260f565b5b6000612a7c8682870161285c565b9350506020612a8d8682870161285c565b9250506040612a9e868287016127a7565b9150509250925092565b600060039050919050565b600081905092915050565b6000819050919050565b612ad181612786565b82525050565b6000612ae38383612ac8565b60208301905092915050565b6000602082019050919050565b612b0581612aa8565b612b0f8184612ab3565b9250612b1a82612abe565b8060005b83811015612b4b578151612b328782612ad7565b9650612b3d83612aef565b925050600181019050612b1e565b505050505050565b6000606082019050612b686000830184612afc565b92915050565b612b7781612786565b82525050565b6000602082019050612b926000830184612b6e565b92915050565b600060208284031215612bae57612bad61260f565b5b6000612bbc8482850161285c565b91505092915050565b612bce8161269e565b8114612bd957600080fd5b50565b600081359050612beb81612bc5565b92915050565b60008060408385031215612c0857612c0761260f565b5b6000612c168582860161285c565b9250506020612c2785828601612bdc565b9150509250929050565b7f4e487b7100000000000000000000000000000000000000000000000000000000600052602160045260246000fd5b60038110612c7157612c70612c31565b5b50565b6000819050612c8282612c60565b919050565b6000612c9282612c74565b9050919050565b612ca281612c87565b82525050565b6000602082019050612cbd6000830184612c99565b92915050565b600080fd5b600067ffffffffffffffff821115612ce357612ce26128b6565b5b612cec8261271a565b9050602081019050919050565b82818337600083830152505050565b6000612d1b612d1684612cc8565b612916565b905082815260208101848484011115612d3757612d36612cc3565b5b612d42848285612cf9565b509392505050565b600082601f830112612d5f57612d5e6128b1565b5b8135612d6f848260208601612d08565b91505092915050565b60008060008060808587031215612d9257612d9161260f565b5b6000612da08782880161285c565b9450506020612db18782880161285c565b9350506040612dc2878288016127a7565b925050606085013567ffffffffffffffff811115612de357612de2612614565b5b612def87828801612d4a565b91505092959194509250565b60008060408385031215612e1257612e1161260f565b5b6000612e208582860161285c565b9250506020612e318582860161285c565b9150509250929050565b7f4e487b7100000000000000000000000000000000000000000000000000000000600052602260045260246000fd5b60006002820490506001821680612e8257607f821691505b602082108103612e9557612e94612e3b565b5b50919050565b7f4552433732313a20617070726f76616c20746f2063757272656e74206f776e6560008201527f7200000000000000000000000000000000000000000000000000000000000000602082015250565b6000612ef76021836126df565b9150612f0282612e9b565b604082019050919050565b60006020820190508181036000830152612f2681612eea565b9050919050565b7f4552433732313a20617070726f76652063616c6c6572206973206e6f7420746f60008201527f6b656e206f776e6572206f7220617070726f76656420666f7220616c6c000000602082015250565b6000612f89603d836126df565b9150612f9482612f2d565b604082019050919050565b60006020820190508181036000830152612fb881612f7c565b9050919050565b6000604082019050612fd4600083018561281b565b612fe1602083018461281b565b9392505050565b7f4552433732313a2063616c6c6572206973206e6f7420746f6b656e206f776e6560008201527f72206f7220617070726f76656400000000000000000000000000000000000000602082015250565b6000613044602d836126df565b915061304f82612fe8565b604082019050919050565b6000602082019050818103600083015261307381613037565b9050919050565b7f4e487b7100000000000000000000000000000000000000000000000000000000600052603260045260246000fd5b600081905092915050565b50565b60006130c46000836130a9565b91506130cf826130b4565b600082019050919050565b60006130e5826130b7565b9150819050919050565b7f4552433732313a20696e76616c696420746f6b656e2049440000000000000000600082015250565b60006131256018836126df565b9150613130826130ef565b602082019050919050565b6000602082019050818103600083015261315481613118565b9050919050565b7f4552433732313a2061646472657373207a65726f206973206e6f74206120766160008201527f6c6964206f776e65720000000000000000000000000000000000000000000000602082015250565b60006131b76029836126df565b91506131c28261315b565b604082019050919050565b600060208201905081810360008301526131e6816131aa565b9050919050565b7f4e487b7100000000000000000000000000000000000000000000000000000000600052601160045260246000fd5b600061322782612786565b91507fffffffffffffffffffffffffffffffffffffffffffffffffffffffffffffffff8203613259576132586131ed565b5b600182019050919050565b6000819050919050565b61327781613264565b82525050565b600067ffffffffffffffff82169050919050565b61329a8161327d565b82525050565b600061ffff82169050919050565b6132b7816132a0565b82525050565b600063ffffffff82169050919050565b6132d6816132bd565b82525050565b600060a0820190506132f1600083018861326e565b6132fe6020830187613291565b61330b60408301866132ae565b61331860608301856132cd565b61332560808301846132cd565b9695505050505050565b60008151905061333e81612790565b92915050565b60006020828403121561335a5761335961260f565b5b60006133688482850161332f565b91505092915050565b600081905092915050565b6000613387826126d4565b6133918185613371565b93506133a18185602086016126f0565b80840191505092915050565b60006133b9828561337c565b91506133c5828461337c565b91508190509392505050565b7f4f776e61626c653a206e6577206f776e657220697320746865207a65726f206160008201527f6464726573730000000000000000000000000000000000000000000000000000602082015250565b600061342d6026836126df565b9150613438826133d1565b604082019050919050565b6000602082019050818103600083015261345c81613420565b9050919050565b600061346e82612786565b915061347983612786565b9250828201905080821115613491576134906131ed565b5b92915050565b7f4e487b7100000000000000000000000000000000000000000000000000000000600052601260045260246000fd5b60006134d182612786565b91506134dc83612786565b9250826134ec576134eb613497565b5b828206905092915050565b600060408201905061350c6000830185612c99565b613519602083018461281b565b9392505050565b7f4552433732313a207472616e736665722066726f6d20696e636f72726563742060008201527f6f776e6572000000000000000000000000000000000000000000000000000000602082015250565b600061357c6025836126df565b915061358782613520565b604082019050919050565b600060208201905081810360008301526135ab8161356f565b9050919050565b7f4552433732313a207472616e7366657220746f20746865207a65726f2061646460008201527f7265737300000000000000000000000000000000000000000000000000000000602082015250565b600061360e6024836126df565b9150613619826135b2565b604082019050919050565b6000602082019050818103600083015261363d81613601565b9050919050565b7f4f776e61626c653a2063616c6c6572206973206e6f7420746865206f776e6572600082015250565b600061367a6020836126df565b915061368582613644565b602082019050919050565b600060208201905081810360008301526136a98161366d565b9050919050565b7f4552433732313a20617070726f766520746f2063616c6c657200000000000000600082015250565b60006136e66019836126df565b91506136f1826136b0565b602082019050919050565b60006020820190508181036000830152613715816136d9565b9050919050565b7f4552433732313a207472616e7366657220746f206e6f6e20455243373231526560008201527f63656976657220696d706c656d656e7465720000000000000000000000000000602082015250565b60006137786032836126df565b91506137838261371c565b604082019050919050565b600060208201905081810360008301526137a78161376b565b9050919050565b7f45524337323155524953746f726167653a2055524920736574206f66206e6f6e60008201527f6578697374656e7420746f6b656e000000000000000000000000000000000000602082015250565b600061380a602e836126df565b9150613815826137ae565b604082019050919050565b60006020820190508181036000830152613839816137fd565b9050919050565b60008190508160005260206000209050919050565b60006020601f8301049050919050565b600082821b905092915050565b6000600883026138a27fffffffffffffffffffffffffffffffffffffffffffffffffffffffffffffffff82613865565b6138ac8683613865565b95508019841693508086168417925050509392505050565b6000819050919050565b60006138e96138e46138df84612786565b6138c4565b612786565b9050919050565b6000819050919050565b613903836138ce565b61391761390f826138f0565b848454613872565b825550505050565b600090565b61392c61391f565b6139378184846138fa565b505050565b5b8181101561395b57613950600082613924565b60018101905061393d565b5050565b601f8211156139a05761397181613840565b61397a84613855565b81016020851015613989578190505b61399d61399585613855565b83018261393c565b50505b505050565b600082821c905092915050565b60006139c3600019846008026139a5565b1980831691505092915050565b60006139dc83836139b2565b9150826002028217905092915050565b6139f5826126d4565b67ffffffffffffffff811115613a0e57613a0d6128b6565b5b613a188254612e6a565b613a2382828561395f565b600060209050601f831160018114613a565760008415613a44578287015190505b613a4e85826139d0565b865550613ab6565b601f198416613a6486613840565b60005b82811015613a8c57848901518255600182019150602085019450602081019050613a67565b86831015613aa95784890151613aa5601f8916826139b2565b8355505b6001600288020188555050505b505050505050565b600081519050919050565b600082825260208201905092915050565b6000613ae582613abe565b613aef8185613ac9565b9350613aff8185602086016126f0565b613b088161271a565b840191505092915050565b6000608082019050613b28600083018761281b565b613b35602083018661281b565b613b426040830185612b6e565b8181036060830152613b548184613ada565b905095945050505050565b600081519050613b6e81612645565b92915050565b600060208284031215613b8a57613b8961260f565b5b6000613b9884828501613b5f565b91505092915050565b7f4552433732313a206d696e7420746f20746865207a65726f2061646472657373600082015250565b6000613bd76020836126df565b9150613be282613ba1565b602082019050919050565b60006020820190508181036000830152613c0681613bca565b9050919050565b7f4552433732313a20746f6b656e20616c7265616479206d696e74656400000000600082015250565b6000613c43601c836126df565b9150613c4e82613c0d565b602082019050919050565b60006020820190508181036000830152613c7281613c36565b905091905056fea264697066735822122057fd08663b78bdc742e42edb70ce20402355222c2e592989852a09a9104e1c2164736f6c63430008130033",
  "linkReferences": {},
  "deployedLinkReferences": {}
}